{
  "contractName": "MenloWalletTimelock",
  "abi": [
    {
      "constant": true,
      "inputs": [],
      "name": "beneficiary",
      "outputs": [
        {
          "name": "",
          "type": "address"
        }
      ],
      "payable": false,
      "stateMutability": "view",
      "type": "function"
    },
    {
      "constant": false,
      "inputs": [],
      "name": "renounceOwnership",
      "outputs": [],
      "payable": false,
      "stateMutability": "nonpayable",
      "type": "function"
    },
    {
      "constant": false,
      "inputs": [],
      "name": "release",
      "outputs": [],
      "payable": false,
      "stateMutability": "nonpayable",
      "type": "function"
    },
    {
      "constant": true,
      "inputs": [],
      "name": "owner",
      "outputs": [
        {
          "name": "",
          "type": "address"
        }
      ],
      "payable": false,
      "stateMutability": "view",
      "type": "function"
    },
    {
      "constant": true,
      "inputs": [],
      "name": "releaseTime",
      "outputs": [
        {
          "name": "",
          "type": "uint256"
        }
      ],
      "payable": false,
      "stateMutability": "view",
      "type": "function"
    },
    {
      "constant": false,
      "inputs": [
        {
          "name": "_newOwner",
          "type": "address"
        }
      ],
      "name": "transferOwnership",
      "outputs": [],
      "payable": false,
      "stateMutability": "nonpayable",
      "type": "function"
    },
    {
      "constant": true,
      "inputs": [],
      "name": "token",
      "outputs": [
        {
          "name": "",
          "type": "address"
        }
      ],
      "payable": false,
      "stateMutability": "view",
      "type": "function"
    },
    {
      "inputs": [
        {
          "name": "_beneficiary",
          "type": "address"
        },
        {
          "name": "_releaseTime",
          "type": "uint256"
        }
      ],
      "payable": false,
      "stateMutability": "nonpayable",
      "type": "constructor"
    },
    {
      "anonymous": false,
      "inputs": [
        {
          "indexed": true,
          "name": "previousOwner",
          "type": "address"
        }
      ],
      "name": "OwnershipRenounced",
      "type": "event"
    },
    {
      "anonymous": false,
      "inputs": [
        {
          "indexed": true,
          "name": "previousOwner",
          "type": "address"
        },
        {
          "indexed": true,
          "name": "newOwner",
          "type": "address"
        }
      ],
      "name": "OwnershipTransferred",
      "type": "event"
    },
    {
      "constant": false,
      "inputs": [
        {
          "name": "_token",
          "type": "address"
        }
      ],
      "name": "setToken",
      "outputs": [],
      "payable": false,
      "stateMutability": "nonpayable",
      "type": "function"
    }
  ],
  "bytecode": "0x608060405234801561001057600080fd5b5060405160408061054e8339810160405280516020909101516000828242811161003957600080fd5b60008054600160a060020a03948516600160a060020a031991821617825560018054949095169381169390931790935560025560038054909116331790556104c5925082915061008990396000f30060806040526004361061008d5763ffffffff7c0100000000000000000000000000000000000000000000000000000000600035041663144fa6d7811461009257806338af3eed146100b5578063715018a6146100e657806386d1a69f146100fb5780638da5cb5b14610110578063b91d400114610125578063f2fde38b1461014c578063fc0c546a1461016d575b600080fd5b34801561009e57600080fd5b506100b3600160a060020a0360043516610182565b005b3480156100c157600080fd5b506100ca6101c8565b60408051600160a060020a039092168252519081900360200190f35b3480156100f257600080fd5b506100b36101d7565b34801561010757600080fd5b506100b3610245565b34801561011c57600080fd5b506100ca61031f565b34801561013157600080fd5b5061013a61032e565b60408051918252519081900360200190f35b34801561015857600080fd5b506100b3600160a060020a0360043516610334565b34801561017957600080fd5b506100ca610354565b600354600160a060020a0316331461019957600080fd5b6000805473ffffffffffffffffffffffffffffffffffffffff1916600160a060020a0392909216919091179055565b600154600160a060020a031681565b600354600160a060020a031633146101ee57600080fd5b600354604051600160a060020a03909116907ff8df31144d9c2f0f6b59d69b8b98abd5459d07f2742c4df920b25aae33c6482090600090a26003805473ffffffffffffffffffffffffffffffffffffffff19169055565b60025460009042101561025757600080fd5b60008054604080517f70a082310000000000000000000000000000000000000000000000000000000081523060048201529051600160a060020a03909216926370a08231926024808401936020939083900390910190829087803b1580156102be57600080fd5b505af11580156102d2573d6000803e3d6000fd5b505050506040513d60208110156102e857600080fd5b50519050600081116102f957600080fd5b60015460005461031c91600160a060020a0391821691168363ffffffff61036316565b50565b600354600160a060020a031681565b60025481565b600354600160a060020a0316331461034b57600080fd5b61031c8161041b565b600054600160a060020a031681565b82600160a060020a031663a9059cbb83836040518363ffffffff167c01000000000000000000000000000000000000000000000000000000000281526004018083600160a060020a0316600160a060020a0316815260200182815260200192505050602060405180830381600087803b1580156103df57600080fd5b505af11580156103f3573d6000803e3d6000fd5b505050506040513d602081101561040957600080fd5b5051151561041657600080fd5b505050565b600160a060020a038116151561043057600080fd5b600354604051600160a060020a038084169216907f8be0079c531659141344cd1fd0a4f28419497f9722a3daafe3b4186f6b6457e090600090a36003805473ffffffffffffffffffffffffffffffffffffffff1916600160a060020a03929092169190911790555600a165627a7a72305820373920c59fc96d44edf6590d04817a794625bc7d2389b6ce15d1754358f64a7a0029",
  "source": "pragma solidity ^0.4.13;\n\ncontract Ownable {\n  address public owner;\n\n\n  event OwnershipRenounced(address indexed previousOwner);\n  event OwnershipTransferred(\n    address indexed previousOwner,\n    address indexed newOwner\n  );\n\n\n  /**\n   * @dev The Ownable constructor sets the original `owner` of the contract to the sender\n   * account.\n   */\n  constructor() public {\n    owner = msg.sender;\n  }\n\n  /**\n   * @dev Throws if called by any account other than the owner.\n   */\n  modifier onlyOwner() {\n    require(msg.sender == owner);\n    _;\n  }\n\n  /**\n   * @dev Allows the current owner to relinquish control of the contract.\n   * @notice Renouncing to ownership will leave the contract without an owner.\n   * It will not be possible to call the functions with the `onlyOwner`\n   * modifier anymore.\n   */\n  function renounceOwnership() public onlyOwner {\n    emit OwnershipRenounced(owner);\n    owner = address(0);\n  }\n\n  /**\n   * @dev Allows the current owner to transfer control of the contract to a newOwner.\n   * @param _newOwner The address to transfer ownership to.\n   */\n  function transferOwnership(address _newOwner) public onlyOwner {\n    _transferOwnership(_newOwner);\n  }\n\n  /**\n   * @dev Transfers control of the contract to a newOwner.\n   * @param _newOwner The address to transfer ownership to.\n   */\n  function _transferOwnership(address _newOwner) internal {\n    require(_newOwner != address(0));\n    emit OwnershipTransferred(owner, _newOwner);\n    owner = _newOwner;\n  }\n}\n\ncontract ERC20Basic {\n  function totalSupply() public view returns (uint256);\n  function balanceOf(address _who) public view returns (uint256);\n  function transfer(address _to, uint256 _value) public returns (bool);\n  event Transfer(address indexed from, address indexed to, uint256 value);\n}\n\ncontract ERC20 is ERC20Basic {\n  function allowance(address _owner, address _spender)\n    public view returns (uint256);\n\n  function transferFrom(address _from, address _to, uint256 _value)\n    public returns (bool);\n\n  function approve(address _spender, uint256 _value) public returns (bool);\n  event Approval(\n    address indexed owner,\n    address indexed spender,\n    uint256 value\n  );\n}\n\nlibrary SafeERC20 {\n  function safeTransfer(\n    ERC20Basic _token,\n    address _to,\n    uint256 _value\n  )\n    internal\n  {\n    require(_token.transfer(_to, _value));\n  }\n\n  function safeTransferFrom(\n    ERC20 _token,\n    address _from,\n    address _to,\n    uint256 _value\n  )\n    internal\n  {\n    require(_token.transferFrom(_from, _to, _value));\n  }\n\n  function safeApprove(\n    ERC20 _token,\n    address _spender,\n    uint256 _value\n  )\n    internal\n  {\n    require(_token.approve(_spender, _value));\n  }\n}\n\ncontract TokenTimelock {\n  using SafeERC20 for ERC20Basic;\n\n  // ERC20 basic token contract being held\n  ERC20Basic public token;\n\n  // beneficiary of tokens after they are released\n  address public beneficiary;\n\n  // timestamp when token release is enabled\n  uint256 public releaseTime;\n\n  constructor(\n    ERC20Basic _token,\n    address _beneficiary,\n    uint256 _releaseTime\n  )\n    public\n  {\n    // solium-disable-next-line security/no-block-members\n    require(_releaseTime > block.timestamp);\n    token = _token;\n    beneficiary = _beneficiary;\n    releaseTime = _releaseTime;\n  }\n\n  /**\n   * @notice Transfers tokens held by timelock to beneficiary.\n   */\n  function release() public {\n    // solium-disable-next-line security/no-block-members\n    require(block.timestamp >= releaseTime);\n\n    uint256 amount = token.balanceOf(address(this));\n    require(amount > 0);\n\n    token.safeTransfer(beneficiary, amount);\n  }\n}\n\ncontract MenloWalletTimelock is TokenTimelock, Ownable {\n    constructor(address _beneficiary, uint256 _releaseTime)\n        TokenTimelock(ERC20Basic(0), _beneficiary, _releaseTime) public {}\n\n    function setToken(ERC20Basic _token) public onlyOwner {\n        token = _token;\n    }\n}\n\n",
  "sourcePath": "/Users/thisuser/menlo-token-crowdsale/contracts/MenloWalletTimelock.sol",
  "compiler": {
    "name": "solc",
    "version": "0.4.24+commit.e67f0147.Emscripten.clang"
  },
  "schemaVersion": "2.0.1",
  "updatedAt": "2018-09-16T10:35:05.855Z"
}