{
  "contractName": "MenloTokenTimelock",
  "abi": [
    {
      "constant": false,
      "inputs": [],
      "name": "renounceOwnership",
      "outputs": [],
      "payable": false,
      "stateMutability": "nonpayable",
      "type": "function"
    },
    {
      "constant": true,
      "inputs": [],
      "name": "owner",
      "outputs": [
        {
          "name": "",
          "type": "address"
        }
      ],
      "payable": false,
      "stateMutability": "view",
      "type": "function"
    },
    {
      "constant": true,
      "inputs": [],
      "name": "releaseTime",
      "outputs": [
        {
          "name": "",
          "type": "uint256"
        }
      ],
      "payable": false,
      "stateMutability": "view",
      "type": "function"
    },
    {
      "constant": true,
      "inputs": [
        {
          "name": "",
          "type": "address"
        }
      ],
      "name": "balance",
      "outputs": [
        {
          "name": "",
          "type": "uint256"
        }
      ],
      "payable": false,
      "stateMutability": "view",
      "type": "function"
    },
    {
      "constant": false,
      "inputs": [
        {
          "name": "_newOwner",
          "type": "address"
        }
      ],
      "name": "transferOwnership",
      "outputs": [],
      "payable": false,
      "stateMutability": "nonpayable",
      "type": "function"
    },
    {
      "constant": true,
      "inputs": [],
      "name": "token",
      "outputs": [
        {
          "name": "",
          "type": "address"
        }
      ],
      "payable": false,
      "stateMutability": "view",
      "type": "function"
    },
    {
      "inputs": [
        {
          "name": "_token",
          "type": "address"
        },
        {
          "name": "_releaseTime",
          "type": "uint256"
        }
      ],
      "payable": false,
      "stateMutability": "nonpayable",
      "type": "constructor"
    },
    {
      "anonymous": false,
      "inputs": [
        {
          "indexed": true,
          "name": "previousOwner",
          "type": "address"
        }
      ],
      "name": "OwnershipRenounced",
      "type": "event"
    },
    {
      "anonymous": false,
      "inputs": [
        {
          "indexed": true,
          "name": "previousOwner",
          "type": "address"
        },
        {
          "indexed": true,
          "name": "newOwner",
          "type": "address"
        }
      ],
      "name": "OwnershipTransferred",
      "type": "event"
    },
    {
      "constant": false,
      "inputs": [
        {
          "name": "_beneficiary",
          "type": "address"
        },
        {
          "name": "_amount",
          "type": "uint256"
        }
      ],
      "name": "deposit",
      "outputs": [],
      "payable": false,
      "stateMutability": "nonpayable",
      "type": "function"
    },
    {
      "constant": false,
      "inputs": [],
      "name": "release",
      "outputs": [],
      "payable": false,
      "stateMutability": "nonpayable",
      "type": "function"
    }
  ],
  "bytecode": "0x608060405234801561001057600080fd5b506040516040806107cd83398101604052805160209091015160008054600160a060020a031916331790554281116100ce57604080517f08c379a0000000000000000000000000000000000000000000000000000000008152602060048201526024808201527f52656c656173652074696d652073686f756c6420626520696e2074686520667560448201527f7475726500000000000000000000000000000000000000000000000000000000606482015290519081900360840190fd5b60018054600160a060020a031916600160a060020a0393909316929092179091556003556106cc806101016000396000f30060806040526004361061008d5763ffffffff7c010000000000000000000000000000000000000000000000000000000060003504166347e7ef248114610092578063715018a6146100b857806386d1a69f146100cd5780638da5cb5b146100e2578063b91d400114610113578063e3d670d71461013a578063f2fde38b1461015b578063fc0c546a1461017c575b600080fd5b34801561009e57600080fd5b506100b6600160a060020a0360043516602435610191565b005b3480156100c457600080fd5b506100b66101ca565b3480156100d957600080fd5b506100b6610236565b3480156100ee57600080fd5b506100f76105c6565b60408051600160a060020a039092168252519081900360200190f35b34801561011f57600080fd5b506101286105d5565b60408051918252519081900360200190f35b34801561014657600080fd5b50610128600160a060020a03600435166105db565b34801561016757600080fd5b506100b6600160a060020a03600435166105ed565b34801561018857600080fd5b506100f7610610565b600054600160a060020a031633146101a857600080fd5b600160a060020a03909116600090815260026020526040902080549091019055565b600054600160a060020a031633146101e157600080fd5b60008054604051600160a060020a03909116917ff8df31144d9c2f0f6b59d69b8b98abd5459d07f2742c4df920b25aae33c6482091a26000805473ffffffffffffffffffffffffffffffffffffffff19169055565b600060035461024361061f565b10156102bf576040805160e560020a62461bcd02815260206004820152602960248201527f52656c656173652074696d652073686f756c64206265206e6f77206f7220696e60448201527f2074686520706173740000000000000000000000000000000000000000000000606482015290519081900360840190fd5b600154604080517f70a082310000000000000000000000000000000000000000000000000000000081523060048201529051600160a060020a03909216916370a08231916024808201926020929091908290030181600087803b15801561032557600080fd5b505af1158015610339573d6000803e3d6000fd5b505050506040513d602081101561034f57600080fd5b50519050600081116103d1576040805160e560020a62461bcd02815260206004820152602c60248201527f436f6e74726163742062616c616e63652073686f756c6420626520677265617460448201527f6572207468616e207a65726f0000000000000000000000000000000000000000606482015290519081900360840190fd5b336000908152600260205260408120541161045c576040805160e560020a62461bcd02815260206004820152602a60248201527f53656e6465722062616c616e63652073686f756c64206265206772656174657260448201527f207468616e207a65726f00000000000000000000000000000000000000000000606482015290519081900360840190fd5b3360009081526002602052604090205481101561050f576040805160e560020a62461bcd02815260206004820152604760248201527f457870656374656420636f6e74726163742062616c616e636520746f2062652060448201527f67726561746572207468616e206f7220657175616c20746f2073656e6465722060648201527f62616c616e636500000000000000000000000000000000000000000000000000608482015290519081900360a40190fd5b6001543360008181526002602090815260408083205481517fa9059cbb0000000000000000000000000000000000000000000000000000000081526004810195909552602485015251600160a060020a039094169363a9059cbb93604480820194918390030190829087803b15801561058757600080fd5b505af115801561059b573d6000803e3d6000fd5b505050506040513d60208110156105b157600080fd5b50503360009081526002602052604081205550565b600054600160a060020a031681565b60035481565b60026020526000908152604090205481565b600054600160a060020a0316331461060457600080fd5b61060d81610623565b50565b600154600160a060020a031681565b4290565b600160a060020a038116151561063857600080fd5b60008054604051600160a060020a03808516939216917f8be0079c531659141344cd1fd0a4f28419497f9722a3daafe3b4186f6b6457e091a36000805473ffffffffffffffffffffffffffffffffffffffff1916600160a060020a03929092169190911790555600a165627a7a72305820895c583d486c494f6d3738ffba4a4fc1dfa7127083740b940cb2b65e9257375a0029",
  "source": "pragma solidity ^0.4.13;\n\ncontract Ownable {\n  address public owner;\n\n\n  event OwnershipRenounced(address indexed previousOwner);\n  event OwnershipTransferred(\n    address indexed previousOwner,\n    address indexed newOwner\n  );\n\n\n  /**\n   * @dev The Ownable constructor sets the original `owner` of the contract to the sender\n   * account.\n   */\n  constructor() public {\n    owner = msg.sender;\n  }\n\n  /**\n   * @dev Throws if called by any account other than the owner.\n   */\n  modifier onlyOwner() {\n    require(msg.sender == owner);\n    _;\n  }\n\n  /**\n   * @dev Allows the current owner to relinquish control of the contract.\n   * @notice Renouncing to ownership will leave the contract without an owner.\n   * It will not be possible to call the functions with the `onlyOwner`\n   * modifier anymore.\n   */\n  function renounceOwnership() public onlyOwner {\n    emit OwnershipRenounced(owner);\n    owner = address(0);\n  }\n\n  /**\n   * @dev Allows the current owner to transfer control of the contract to a newOwner.\n   * @param _newOwner The address to transfer ownership to.\n   */\n  function transferOwnership(address _newOwner) public onlyOwner {\n    _transferOwnership(_newOwner);\n  }\n\n  /**\n   * @dev Transfers control of the contract to a newOwner.\n   * @param _newOwner The address to transfer ownership to.\n   */\n  function _transferOwnership(address _newOwner) internal {\n    require(_newOwner != address(0));\n    emit OwnershipTransferred(owner, _newOwner);\n    owner = _newOwner;\n  }\n}\n\ncontract ERC20Basic {\n  function totalSupply() public view returns (uint256);\n  function balanceOf(address _who) public view returns (uint256);\n  function transfer(address _to, uint256 _value) public returns (bool);\n  event Transfer(address indexed from, address indexed to, uint256 value);\n}\n\ncontract ERC20 is ERC20Basic {\n  function allowance(address _owner, address _spender)\n    public view returns (uint256);\n\n  function transferFrom(address _from, address _to, uint256 _value)\n    public returns (bool);\n\n  function approve(address _spender, uint256 _value) public returns (bool);\n  event Approval(\n    address indexed owner,\n    address indexed spender,\n    uint256 value\n  );\n}\n\nlibrary SafeERC20 {\n  function safeTransfer(\n    ERC20Basic _token,\n    address _to,\n    uint256 _value\n  )\n    internal\n  {\n    require(_token.transfer(_to, _value));\n  }\n\n  function safeTransferFrom(\n    ERC20 _token,\n    address _from,\n    address _to,\n    uint256 _value\n  )\n    internal\n  {\n    require(_token.transferFrom(_from, _to, _value));\n  }\n\n  function safeApprove(\n    ERC20 _token,\n    address _spender,\n    uint256 _value\n  )\n    internal\n  {\n    require(_token.approve(_spender, _value));\n  }\n}\n\ncontract MenloTokenTimelock is Ownable {\n  using SafeERC20 for ERC20Basic;\n\n  // ERC20 basic token contract being held\n  ERC20Basic public token;\n\n  mapping (address => uint256) public balance;\n\n  // timestamp when token release is enabled\n  uint256 public releaseTime;\n\n  constructor(ERC20Basic _token, uint256 _releaseTime) public {\n    require(_releaseTime > now, \"Release time should be in the future\");\n    token = _token;\n    releaseTime = _releaseTime;\n  }\n\n  function deposit(address _beneficiary, uint256 _amount) public onlyOwner {\n    balance[_beneficiary] += _amount;\n  }\n\n  /**\n   * @notice Transfers tokens held by timelock to beneficiary.\n   */\n  function release() public {\n    require(getBlockTimestamp() >= releaseTime, \"Release time should be now or in the past\");\n\n    uint256 _amount = token.balanceOf(this);\n    require(_amount > 0, \"Contract balance should be greater than zero\");\n\n    require(balance[msg.sender] > 0, \"Sender balance should be greater than zero\");\n    require(_amount >= balance[msg.sender], \"Expected contract balance to be greater than or equal to sender balance\");\n    token.transfer(msg.sender, balance[msg.sender]);\n    balance[msg.sender] = 0;\n  }\n\n  function getBlockTimestamp() internal view returns (uint256) {\n    return block.timestamp;\n  }\n}\n\n",
  "sourcePath": "/Users/thisuser/menlo-token-crowdsale/contracts/MenloTokenTimelock.sol",
  "compiler": {
    "name": "solc",
    "version": "0.4.24+commit.e67f0147.Emscripten.clang"
  },
  "schemaVersion": "2.0.1",
  "updatedAt": "2018-09-16T10:35:05.862Z"
}